:100000000C94C1000C94E0000C94E0000C94E0000F
:100010000C94E0000C94E0000C94E0000C94E000E0
:100020000C94E0000C94E0000C94E0000C94E000D0
:100030000C94E0000C94E0000C94E0000C94E000C0
:100040000C94E0000C94E0000C94E0000C94E000B0
:100050000C94E0000C94E0000C94E0000C94E000A0
:100060000C94E0000C94E0000C94E0000C94E00090
:100070000C94E0000C94E0000C94E0000C94E00080
:100080000C94E0000C94E0000C94E0000C94E00070
:100090000C94E0000C94E0000C94E0000C94E00060
:1000A0000C94E0000C94E0000C94E0000C94E00050
:1000B0000C94E0000C94E0000C94E0000C94E00040
:1000C0000C94E0000C94E0000C94E0000C94E00030
:1000D0000C94E0000C94E0000C94E0000C94E00020
:1000E0000C94E0000C94E0000C94E0000C94E00010
:1000F0000C94E0000C94E0000C94E0000C94E00000
:1001000007634236B79BD8A71A39685618AEBAAB00
:10011000558C1D3CB7CC5763BD6DEDFD753EF61794
:100120007231BF000000803F08000000BE922449E9
:10013000123EABAAAA2ABECDCCCC4C3E0000008019
:10014000BEABAAAAAA3E00000000BF000000803F8C
:100150000000000000084178D3BB4387D1133D194C
:100160000E3CC3BD4282AD2B3E68EC8276BED98F79
:10017000E1A93E4C80EFFFBE01C4FF7F3F000000BD
:10018000000011241FBECFEFCDBFDFE7DEBF10E4BC
:10019000A0E0B0E4E4EBFCE000E00BBF02C007909D
:1001A0000D92A632B107D9F720E4A6E2B0E401C06F
:1001B0001D92AD35B207E1F70E9417020C94580664
:1001C0000C9400006150710920E030E00EC0DC01A9
:1001D000A20FB31F4C91FC01E60FF71F50815C93F7
:1001E00040832F5F3F4F61507109261737077CF31B
:1001F0000895CF92DF92EF92FF920F931F93CF93C8
:10020000DF938A016901C0E0D0E011C07801EC0EF3
:10021000FD1E2AE030E040E050E00E941706605DDD
:10022000F7016083622F732F842F952F219661151C
:1002300071058105910551F706C0F801EC0FFD1F0E
:1002400080E380832196CC15DD05BCF3BE01C80197
:100250000E94E200F801EC0FFD1F1082CE01DF9139
:10026000CF911F910F91FF90EF90DF90CF90089565
:100270008F929F92AF92BF92CF92DF92EF92FF92B6
:100280000F931F93CF93DF934B015C018A01E90128
:100290000E9461036B01770FEE08FF08C701B601EA
:1002A0000E9499039B01AC01C501B4010E94820226
:1002B0004B015C0120E030E0A801C701B6010E94BB
:1002C000F9007C01209749F1F801E80FF91F8EE24F
:1002D0008083BE010D2E000C880B990B0E949903A0
:1002E0009B01AC0160E070E080E291E40E94920426
:1002F0009B01AC01C501B4010E9425042FEFE21A55
:10030000F20A0E946103A8014E0D5F1D072E000C2A
:10031000880B990B9E010E94F900DF91CF911F91EC
:100320000F91FF90EF90DF90CF90BF90AF909F9094
:100330008F900895E0E4F4E020812D7F20832081D8
:1003400021602083BC0180E090E00E94970320E0C0
:1003500030E040E851E40E9425049B01AC0160E0DC
:1003600074E284E79DE40E94EF0220E030E040E088
:100370005FE30E9483020E946803E0E2F8E0608786
:1003800071878681806C868308959091240895FFFB
:10039000FCCF8093220808950F931F93CF93DF9390
:1003A0008C01C0E0D0E007C0F801EC0FFD1F808198
:1003B0000E94C5012196F80101900020E9F73197CC
:1003C000E01BF10BCE17DF0778F38AE00E94C5012E
:1003D000DF91CF911F910F9108959A0146E250E469
:1003E0000E94380186E290E40E94CC01089585E8DD
:1003F0008093A000E0E0F6E081E0828380831092A9
:100400006804089581E080930A06089580930806A1
:100410000E94020280910D0680FFFCCF60911006C1
:100420007091110680E090E00E94970308957894FF
:1004300081E08093584080E895E20E949A010E94F2
:10044000F701E0E4F4E080E8828387898860878BA5
:100450008091480488232CF080E090E40E94CC0135
:1004600004C081E190E40E94CC0183E090E00E940E
:100470000602C1E0D0E0C12CD12C76010DC083E092
:1004800090E00E9406029B01AC01C701B6010E94E8
:1004900083026B017C012196C53F21E0D2077CF3EA
:1004A00020E030E04AEF53E4C701B6010E94EF02BA
:1004B0006B017C0142E050E00E94ED0121EF33E648
:1004C0004FEA5CE3C701B6010E94250424EE36EF33
:1004D00043E850E40E9482026093594070935A406E
:1004E00080935B4090935C4042E050E00E94ED01BD
:1004F0008FE798E321E0815090402040E1F700C071
:100500000000A6CF5058BB27AA270E949A020C943D
:10051000EB030E94DD0338F00E94E40320F039F47D
:100520009F3F19F426F40C94DA030EF4E095E7FBF0
:100530000C94D403E92F0E94FC0358F3BA17620706
:1005400073078407950720F079F4A6F50C941E0430
:100550000EF4E0950B2EBA2FA02D0B01B9019001DE
:100560000C01CA01A0011124FF27591B99F0593F22
:1005700050F4503E68F11A16F040A22F232F342F6A
:100580004427585FF3CF469537952795A795F040B8
:100590005395C9F77EF41F16BA0B620B730B840BCD
:1005A000BAF09150A1F0FF0FBB1F661F771F881F85
:1005B000C2F70EC0BA0F621F731F841F48F48795DD
:1005C00077956795B795F7959E3F08F0B0CF9395CF
:1005D000880F08F09927EE0F9795879508950E9448
:1005E00003030C94EB030E94E40358F00E94DD0324
:1005F00040F029F45F3F29F00C94D40351110C947E
:100600001F040C94DA030E94FC0368F39923B1F3EE
:10061000552391F3951B550BBB27AA276217730728
:10062000840738F09F5F5F4F220F331F441FAA1FBC
:10063000A9F335D00E2E3AF0E0E832D09150504078
:10064000E695001CCAF72BD0FE2F29D0660F771F26
:10065000881FBB1F261737074807AB07B0E809F00C
:10066000BB0B802DBF01FF2793585F4F3AF09E3F91
:10067000510578F00C94D4030C941F045F3FE4F30D
:10068000983ED4F3869577956795B795F7959F5FD4
:10069000C9F7880F911D9695879597F90895E1E020
:1006A000660F771F881FBB1F621773078407BA077F
:1006B00020F0621B730B840BBA0BEE1F88F7E095DA
:1006C00008950E9468036894B1110C941F04089562
:1006D0000E94040488F09F5798F0B92F9927B751CA
:1006E000B0F0E1F0660F771F881F991F1AF0BA95D6
:1006F000C9F714C0B13091F00E941E04B1E0089512
:100700000C941E04672F782F8827B85F39F0B93F03
:10071000CCF3869577956795B395D9F73EF4909588
:100720008095709561957F4F8F4F9F4F0895E89406
:1007300009C097FB3EF490958095709561957F4F29
:100740008F4F9F4F9923A9F0F92F96E9BB279395D7
:10075000F695879577956795B795F111F8CFFAF4E7
:10076000BB0F11F460FF1BC06F5F7F4F8F4F9F4F18
:1007700016C0882311F096E911C0772321F09EE876
:10078000872F762F05C0662371F096E8862F70E0DC
:1007900060E02AF09A95660F771F881FDAF7880FB6
:1007A0009695879597F9089597F99F6780E870E087
:1007B00060E008959FEF80EC089500240A941616D7
:1007C000170618060906089500240A94121613063F
:1007D000140605060895092E0394000C11F48823CD
:1007E00052F0BB0F40F4BF2B11F460FF04C06F5FE9
:1007F0007F4F8F4F9F4F089557FD9058440F551FBF
:1008000059F05F3F71F04795880F97FB991F61F092
:100810009F3F79F087950895121613061406551F09
:10082000F2CF4695F1DF08C0161617061806991F75
:10083000F1CF86957105610508940895E894BB276A
:1008400066277727CB0197F908950E9438040C9406
:10085000EB030E94DD0338F00E94E40320F09523AF
:1008600011F00C94D4030C94DA0311240C941F049B
:100870000E94FC0370F3959FC1F3950F50E0551F44
:10088000629FF001729FBB27F00DB11D639FAA27E5
:10089000F00DB11DAA1F649F6627B00DA11D661F34
:1008A000829F2227B00DA11D621F739FB00DA11D55
:1008B000621F839FA00D611D221F749F3327A00D0F
:1008C000611D231F849F600D211D822F762F6A2FAB
:1008D00011249F5750409AF0F1F088234AF0EE0F10
:1008E000FF1FBB1F661F771F881F91505040A9F73D
:1008F0009E3F510580F00C94D4030C941F045F3F7D
:10090000E4F3983ED4F3869577956795B795F79578
:10091000E7959F5FC1F7FE2B880F911D96958795F0
:1009200097F90895FA01EE0FFF1F30962105310562
:10093000A1F16115710561F48038BFE39B0749F1AE
:1009400068949038810561F08038BFEF9B0741F0D3
:1009500099234AF5FF3FE1053105210519F1E89496
:100960000894E795D901AA2329F4AB2FBE2FF85F8D
:10097000D0F310C0FF5F70F4A695E0F7F73950F0A0
:1009800019F0FF3A38F49F779F930DD00F9007FC32
:100990009058089546F00C94DA0360E070E080E827
:1009A0009FE308954FE79F775F934F933F932F9374
:1009B0000E948D052F913F914F915F910E942504D8
:1009C0000C94EA0429F416F00C94D4030C941E043D
:1009D0000C94DA030E940404A8F39638A0F707F8F1
:1009E0000F92E8942BE33AEA48EB5FE70E943B045E
:1009F0000F920F920F924DB75EB70F920E94D505DE
:100A0000E0E0F1E00E941C054F915F91EF91FF91B2
:100A1000E595EE1FFF1F49F0FE57E0684427EE0FF3
:100A2000441FFA95E1F74195550B0E944F050F9031
:100A300007FE0C9443050895DF93CF931F930F9304
:100A4000FF92EF92DF927B018C01689406C0DA2E50
:100A5000EF010E943804FE01E894A591259135919B
:100A600045915591A6F3EF010E949A02FE0197016C
:100A7000A801DA9469F7DF90EF90FF900F911F9132
:100A8000CF91DF9108959B01AC0160E070E080E8B8
:100A90009FE30C94EF020C94D4030C9409060E947B
:100AA0000404D8F39923C9F3940F511DA3F3915073
:100AB000504094F059F0882332F0660F771F881F5A
:100AC00091505040C1F79E3F51052CF7880F911D62
:100AD0009695879597F908955F3FACF0983E9CF006
:100AE000BB27869577956795B79508F4B160939580
:100AF000C1F7BB0F58F711F460FFE8CF6F5F7F4F6E
:100B00008F4F9F4FE3CF0C941F0416F00C940906EF
:100B10000C94DA0368940C94D4030E940404A8F3A0
:100B20009923C1F3AEF3DF93CF931F930F93FF92FB
:100B3000C92FDD2788232AF02197660F771F881F8A
:100B4000DAF720E030E040E85FEB9FE3883920F0FF
:100B5000803E38F021968F770E948302E8E2F1E030
:100B600004C00E948302E5E5F1E00E941C058B01B0
:100B7000BE01EC01FB2E6F5771097595771F880B2D
:100B8000990B0E94990328E132E741E35FE30E9459
:100B90003804AF2D9801AE01FF900F911F91CF91B6
:100BA000DF910E949A020C94EB03FA01DC01AA0F78
:100BB000BB1F9B01AC01BF5728F4222733274427D2
:100BC000507820C0B75190F4AB2F0024469537954C
:100BD0002795011CA395D2F3002071F0220F331F3B
:100BE000441FB395DAF30ED00C9482026130710584
:100BF000A0E88A07B94630F49B01AC016627772745
:100C000088279078309621F0208331834283538364
:100C100008959F3F31F0915020F48795779567951F
:100C2000B795880F911D9695879597F90895052E8C
:100C300097FB1EF400940E942E0657FD07D00E94D9
:100C4000360607FC03D04EF40C942E0650954095C2
:100C5000309521953F4F4F4F5F4F08959095809568
:100C6000709561957F4F8F4F9F4F0895A1E21A2E87
:100C7000AA1BBB1BFD010DC0AA1FBB1FEE1FFF1F40
:100C8000A217B307E407F50720F0A21BB30BE40B90
:100C9000F50B661F771F881F991F1A9469F76095D7
:100CA0007095809590959B01AC01BD01CF01089591
:040CB000F894FFCFE6
:100CB400535952494E4745204445544543544544AD
:100CC40000535952494E4745204E4F5420444554F1
:060CD400454354454400B5
:00000001FF
